{
  "transactions": [
    {
      "hash": "0x80ced86db35fe04d8a96d87f4fd2ed419ddc8d01c18a6fa272fa1557b31eebde",
      "transactionType": "CREATE",
      "contractName": "MockERC20",
      "contractAddress": "0x5fc8d32690cc91d4c39d9d3abcbd16989f875707",
      "function": null,
      "arguments": [
        "Mock USD Coin",
        "mUSDC",
        "6"
      ],
      "transaction": {
        "from": "0xf39fd6e51aad88f6f4ce6ab8827279cfffb92266",
        "gas": "0xb428d",
        "value": "0x0",
        "input": "0x60a060405234801562000010575f80fd5b5060405162000b4b38038062000b4b833981016040819052620000339162000120565b5f62000040848262000229565b5060016200004f838262000229565b5060ff1660805250620002f59050565b634e487b7160e01b5f52604160045260245ffd5b5f82601f83011262000083575f80fd5b81516001600160401b0380821115620000a057620000a06200005f565b604051601f8301601f19908116603f01168101908282118183101715620000cb57620000cb6200005f565b8160405283815260209250866020858801011115620000e8575f80fd5b5f91505b838210156200010b5785820183015181830184015290820190620000ec565b5f602085830101528094505050505092915050565b5f805f6060848603121562000133575f80fd5b83516001600160401b03808211156200014a575f80fd5b620001588783880162000073565b945060208601519150808211156200016e575f80fd5b506200017d8682870162000073565b925050604084015160ff8116811462000194575f80fd5b809150509250925092565b600181811c90821680620001b457607f821691505b602082108103620001d357634e487b7160e01b5f52602260045260245ffd5b50919050565b601f8211156200022457805f5260205f20601f840160051c81016020851015620002005750805b601f840160051c820191505b8181101562000221575f81556001016200020c565b50505b505050565b81516001600160401b038111156200024557620002456200005f565b6200025d816200025684546200019f565b84620001d9565b602080601f83116001811462000293575f84156200027b5750858301515b5f19600386901b1c1916600185901b178555620002ed565b5f85815260208120601f198616915b82811015620002c357888601518255948401946001909101908401620002a2565b5085821015620002e157878501515f19600388901b60f8161c191681555b505060018460011b0185555b505050505050565b60805161083d6200030e5f395f61011a015261083d5ff3fe608060405234801561000f575f80fd5b50600436106100a6575f3560e01c806340c10f191161006e57806340c10f191461014e57806370a082311461016357806395d89b41146101825780639dc29fac1461018a578063a9059cbb1461019d578063dd62ed3e146101b0575f80fd5b806306fdde03146100aa578063095ea7b3146100c857806318160ddd146100eb57806323b872dd14610102578063313ce56714610115575b5f80fd5b6100b26101da565b6040516100bf919061067c565b60405180910390f35b6100db6100d63660046106e3565b610265565b60405190151581526020016100bf565b6100f460025481565b6040519081526020016100bf565b6100db61011036600461070b565b6102d1565b61013c7f000000000000000000000000000000000000000000000000000000000000000081565b60405160ff90911681526020016100bf565b61016161015c3660046106e3565b6103af565b005b6100f4610171366004610744565b60036020525f908152604090205481565b6100b2610471565b6101616101983660046106e3565b61047e565b6100db6101ab3660046106e3565b61054d565b6100f46101be366004610764565b600460209081525f928352604080842090915290825290205481565b5f80546101e690610795565b80601f016020809104026020016040519081016040528092919081815260200182805461021290610795565b801561025d5780601f106102345761010080835404028352916020019161025d565b820191905f5260205f20905b81548152906001019060200180831161024057829003601f168201915b505050505081565b335f8181526004602090815260408083206001600160a01b038716808552925280832085905551919290917f8c5be1e5ebec7d5bd14f71427d1e84f3dd0314c0f7b2291e5b200ac8c7c3b925906102bf9086815260200190565b60405180910390a35060015b92915050565b6001600160a01b0383165f9081526004602090815260408083203384529091528120545f19811461039957828110156103395760405162461bcd60e51b8152602060048201526005602482015264414c4c4f5760d81b60448201526064015b60405180910390fd5b6001600160a01b0385165f81815260046020908152604080832033808552908352928190208786039081905590519081529192917f8c5be1e5ebec7d5bd14f71427d1e84f3dd0314c0f7b2291e5b200ac8c7c3b925910160405180910390a35b6103a4858585610562565b506001949350505050565b6001600160a01b0382166103eb5760405162461bcd60e51b81526020600482015260036024820152620544f360ec1b6044820152606401610330565b8060025f8282546103fc91906107e1565b90915550506001600160a01b0382165f90815260036020526040812080548392906104289084906107e1565b90915550506040518181526001600160a01b038316905f907fddf252ad1be2c89b69c2b068fc378daa952ba7f163c4a11628f55a4df523b3ef9060200160405180910390a35050565b600180546101e690610795565b6001600160a01b0382165f90815260036020526040902054818110156104cc5760405162461bcd60e51b815260206004820152600360248201526210905360ea1b6044820152606401610330565b6104d682826107f4565b6001600160a01b0384165f90815260036020526040812091909155600280548492906105039084906107f4565b90915550506040518281525f906001600160a01b038516907fddf252ad1be2c89b69c2b068fc378daa952ba7f163c4a11628f55a4df523b3ef9060200160405180910390a3505050565b5f610559338484610562565b50600192915050565b6001600160a01b03821661059e5760405162461bcd60e51b81526020600482015260036024820152620544f360ec1b6044820152606401610330565b6001600160a01b0383165f90815260036020526040902054818110156105ec5760405162461bcd60e51b815260206004820152600360248201526210905360ea1b6044820152606401610330565b6001600160a01b038085165f908152600360205260408082208585039055918516815290812080548492906106229084906107e1565b92505081905550826001600160a01b0316846001600160a01b03167fddf252ad1be2c89b69c2b068fc378daa952ba7f163c4a11628f55a4df523b3ef8460405161066e91815260200190565b60405180910390a350505050565b5f602080835283518060208501525f5b818110156106a85785810183015185820160400152820161068c565b505f604082860101526040601f19601f8301168501019250505092915050565b80356001600160a01b03811681146106de575f80fd5b919050565b5f80604083850312156106f4575f80fd5b6106fd836106c8565b946020939093013593505050565b5f805f6060848603121561071d575f80fd5b610726846106c8565b9250610734602085016106c8565b9150604084013590509250925092565b5f60208284031215610754575f80fd5b61075d826106c8565b9392505050565b5f8060408385031215610775575f80fd5b61077e836106c8565b915061078c602084016106c8565b90509250929050565b600181811c908216806107a957607f821691505b6020821081036107c757634e487b7160e01b5f52602260045260245ffd5b50919050565b634e487b7160e01b5f52601160045260245ffd5b808201808211156102cb576102cb6107cd565b818103818111156102cb576102cb6107cd56fea2646970667358221220eef0f85babf1e7bb4a4da7220f6bba50a95036550cbc99ad5ecebe20e7d1f50364736f6c63430008180033000000000000000000000000000000000000000000000000000000000000006000000000000000000000000000000000000000000000000000000000000000a00000000000000000000000000000000000000000000000000000000000000006000000000000000000000000000000000000000000000000000000000000000d4d6f636b2055534420436f696e0000000000000000000000000000000000000000000000000000000000000000000000000000000000000000000000000000056d55534443000000000000000000000000000000000000000000000000000000",
        "nonce": "0x5",
        "chainId": "0x7a69"
      },
      "additionalContracts": [],
      "isFixedGasLimit": false
    },
    {
      "hash": "0x867978587381356952f3f20550dd255d71d3dca74d72a226733579b021f67ed1",
      "transactionType": "CREATE",
      "contractName": "OpenSub",
      "contractAddress": "0x0165878a594ca255338adfa4d48449f69242eb8f",
      "function": null,
      "arguments": null,
      "transaction": {
        "from": "0xf39fd6e51aad88f6f4ce6ab8827279cfffb92266",
        "gas": "0x1bc6c9",
        "value": "0x0",
        "input": "0x608060405260015f5560018055348015610017575f80fd5b5060017f9b779b17422d0df92223018b32b4d1fa46e071723d6817e2486d003becc55f0055611720806100495f395ff3fe608060405234801561000f575f80fd5b50600436106100e5575f3560e01c80636c8c215611610088578063b162061611610063578063b162061614610236578063b195bfd2146102f5578063ce3f865f14610308578063da58935f14610330575f80fd5b80636c8c2156146101e6578063905e033c146101f9578063ae5284a314610223575f80fd5b80633132ddfe116100c35780633132ddfe1461019357806337dc3191146101b65780635583a930146101cb5780635f8d26b2146101de575f80fd5b80630f574ba7146100e957806312b39f4d1461010f5780632d5bbf6014610122575b5f80fd5b6100fc6100f73660046114cc565b610339565b6040519081526020015b60405180910390f35b6100fc61011d3660046114f9565b6105f5565b6101816101303660046114cc565b60036020525f908152604090208054600182015460029092015490916001600160a01b0381169160ff600160a01b8304169164ffffffffff600160a81b8204811692600160d01b9092048116911686565b6040516101069695949392919061156a565b6101a66101a13660046114cc565b610918565b6040519015158152602001610106565b6101c96101c43660046115c9565b610998565b005b6101a66101d93660046114cc565b610b66565b6100fc5f5481565b6101c96101f43660046114cc565b610bbc565b6100fc6102073660046115fb565b600460209081525f928352604080842090915290825290205481565b6100fc6102313660046114cc565b610d1c565b6102a76102443660046114cc565b600260208190525f918252604090912080546001820154928201546003909201546001600160a01b0391821693909116919064ffffffffff8082169161ffff600160281b8204169160ff600160381b830416916801000000000000000090041687565b604080516001600160a01b0398891681529790961660208801529486019390935264ffffffffff918216606086015261ffff16608085015290151560a08401521660c082015260e001610106565b6101c96103033660046115c9565b610d89565b61031b6103163660046114cc565b610e4c565b60408051928352602083019190915201610106565b6100fc60015481565b5f610342610e82565b5f82815260026020526040902080546001600160a01b031661037f57604051633f8f33af60e01b8152600481018490526024015b60405180910390fd5b6003810154600160381b900460ff166103ae57604051630f765a9360e21b815260048101849052602401610376565b5f8381526004602090815260408083203384529091529020548015610425575f8181526003602052604090206103e381610e9d565b1561040a576040516312fdec5f60e11b815260048101869052336024820152604401610376565b505f8481526004602090815260408083203384529091528120555b60018054905f61043483611639565b909155506040805160c08101825286815233602082015291945042919081016001815264ffffffffff831660208083018290526040808401929092525f606090930183905287835260038082529282902084518155908401516001820180546001600160a01b039092166001600160a01b0319831681178255938601519294929390926001600160a81b03199092161790600160a01b9084908111156104dc576104dc611556565b02179055506060820151600182018054608085015169ffffffffffffffffffff60a81b19909116600160a81b64ffffffffff9485160264ffffffffff60d01b191617600160d01b9184169190910217905560a0909201516002909101805464ffffffffff1916919092161790555f858152600460209081526040808320338452909152812085905561057090859080610f20565b50505f8481526003602090815260409182902060010154825164ffffffffff8581168252600160d01b909204909116918101919091523391879187917f7785ceacde6288a8590a79d939f08acc66cc15ee8513763e588f080b71ce91a2910160405180910390a45050506105f060015f805160206116cb83398151915255565b919050565b5f6001600160a01b038516158061060a575083155b8061061a575064ffffffffff8316155b1561063857604051630e52390960e41b815260040160405180910390fd5b846001600160a01b03163b5f0361066257604051630e52390960e41b815260040160405180910390fd5b61066f6127105f19611651565b84111561068f57604051630e52390960e41b815260040160405180910390fd5b6127108261ffff1611156106b657604051630e52390960e41b815260040160405180910390fd5b846001600160a01b03166318160ddd6040518163ffffffff1660e01b8152600401602060405180830381865afa925050508015610710575060408051601f3d908101601f1916820190925261070d91810190611670565b60015b61072d57604051630e52390960e41b815260040160405180910390fd5b505f8054908061073c83611639565b9190505590506040518060e00160405280336001600160a01b03168152602001866001600160a01b031681526020018581526020018464ffffffffff1681526020018361ffff1681526020016001151581526020014264ffffffffff1681525060025f8381526020019081526020015f205f820151815f015f6101000a8154816001600160a01b0302191690836001600160a01b031602179055506020820151816001015f6101000a8154816001600160a01b0302191690836001600160a01b03160217905550604082015181600201556060820151816003015f6101000a81548164ffffffffff021916908364ffffffffff16021790555060808201518160030160056101000a81548161ffff021916908361ffff16021790555060a08201518160030160076101000a81548160ff02191690831515021790555060c08201518160030160086101000a81548164ffffffffff021916908364ffffffffff160217905550905050846001600160a01b0316336001600160a01b0316827f099e4e9769a348ee189f3065a6dc38ccda4950c2fde312d59a38f458c2d23e468787876040516109089392919092835264ffffffffff91909116602083015261ffff16604082015260600190565b60405180910390a4949350505050565b5f818152600360205260408120600180820154600160a01b900460ff16600381111561094657610946611556565b1480610971575060026001820154600160a01b900460ff16600381111561096f5761096f611556565b145b156109905760010154600160d01b900464ffffffffff16421092915050565b505f92915050565b5f828152600360205260408120906001820154600160a01b900460ff1660038111156109c6576109c6611556565b036109e75760405163c5171ee960e01b815260048101849052602401610376565b60018101546001600160a01b03163314610a13576040516282b42960e81b815260040160405180910390fd5b60036001820154600160a01b900460ff166003811115610a3557610a35611556565b03610a5657604051630a6cef5f60e41b815260048101849052602401610376565b81610a6957610a64836112b0565b505050565b60026001820154600160a01b900460ff166003811115610a8b57610a8b611556565b03610a9557505050565b600180820154600160a01b900460ff166003811115610ab657610ab6611556565b14610ad757604051630a6cef5f60e41b815260048101849052602401610376565b6001810154429064ffffffffff600160d01b909104811690821610610b0557610aff846112b0565b50505050565b60018201805460ff60a01b1916600160a11b1790819055604051600160d01b90910464ffffffffff16815284907fb83284c226cee54135735cb446715f29df2e996672bab49fd9705f55c4675b9d906020015b60405180910390a250505050565b5f818152600360205260408120600180820154600160a01b900460ff166003811115610b9457610b94611556565b14610ba157505f92915050565b60010154600160d01b900464ffffffffff1642101592915050565b5f818152600360205260408120906001820154600160a01b900460ff166003811115610bea57610bea611556565b03610c0b5760405163c5171ee960e01b815260048101839052602401610376565b60018101546001600160a01b03163314610c37576040516282b42960e81b815260040160405180910390fd5b600180820154600160a01b900460ff166003811115610c5857610c58611556565b03610c61575050565b60026001820154600160a01b900460ff166003811115610c8357610c83611556565b14610ca457604051630a6cef5f60e41b815260048101839052602401610376565b6001810154600160d01b900464ffffffffff164210610cd957604051630a6cef5f60e41b815260048101839052602401610376565b60018101805460ff60a01b1916600160a01b17905560405182907f5310e0b5afc3f072692dc7ef52199da78622ef2689275a36d98cca11e9b85a24905f90a25050565b5f81815260026020526040812080546001600160a01b0316610d5457604051633f8f33af60e01b815260048101849052602401610376565b6003810154600282015461271091610d7891600160281b90910461ffff1690611687565b610d829190611651565b9392505050565b5f82815260026020526040902080546001600160a01b0316610dc157604051633f8f33af60e01b815260048101849052602401610376565b80546001600160a01b03163314610dea576040516282b42960e81b815260040160405180910390fd5b600381018054831515600160381b0267ff000000000000001990911617905560405183907f8458b3aef00932de9de4bb833b8c8761c69af86bf7b8031c4499f8184c27addd90610e3f90851515815260200190565b60405180910390a2505050565b5f80610e56610e82565b610e6283336001610f20565b9092509050610e7d60015f805160206116cb83398151915255565b915091565b610e8a6113f8565b60025f805160206116cb83398151915255565b5f600180830154600160a01b900460ff166003811115610ebf57610ebf611556565b03610ecc57506001919050565b60026001830154600160a01b900460ff166003811115610eee57610eee611556565b148015610f0c57506001820154600160d01b900464ffffffffff1642105b15610f1957506001919050565b505f919050565b5f8381526003602052604081208190816001820154600160a01b900460ff166003811115610f5057610f50611556565b03610f715760405163c5171ee960e01b815260048101879052602401610376565b600180820154600160a01b900460ff166003811115610f9257610f92611556565b14610fb357604051630a6cef5f60e41b815260048101879052602401610376565b80545f90815260026020526040902080546001600160a01b0316610ff0578154604051633f8f33af60e01b81526004810191909152602401610376565b6003810154600160381b900460ff16611022578154604051630f765a9360e21b81526004810191909152602401610376565b60018201545f908190600160d01b900464ffffffffff164281111561106357604051637234f6b960e11b815264ffffffffff82166004820152602401610376565b60018501546001600160a01b03908116908a160361107f575f97505b87801561109457506001600160a01b03891615155b80156110ae57506003840154600160281b900461ffff1615155b1561110d5760038401546002850154612710916110d791600160281b90910461ffff1690611687565b6110e19190611651565b9550836002015486111561110857604051630e52390960e41b815260040160405180910390fd5b611111565b5f95505b85846002015461112191906116a4565b96504292505f8164ffffffffff168464ffffffffff16116111425781611144565b835b60038601549091505f906111639064ffffffffff9081169084166116b7565b905064ffffffffff81111561118b57604051630e52390960e41b815260040160405180910390fd5b60018701805464ffffffffff60d01b1916600160d01b64ffffffffff848116919091029190911790915560028801805464ffffffffff1916918716919091179055925050861590506111fd576001808501548454918501546111fd926001600160a01b03918216928216911689611429565b84156112255760018085015490840154611225916001600160a01b0391821691168a88611429565b6001808501548554918501546002860154604080516001600160a01b039384168152602081019290925281018990528b8216606082015264ffffffffff8087166080830152851660a0820152911691908b907f05bce31eb0e5d3aa8d6a403596f37329b8b996340f1714009392d8a0e15eaa639060c00160405180910390a450505050935093915050565b5f818152600360205260408120906001820154600160a01b900460ff1660038111156112de576112de611556565b1480611309575060036001820154600160a01b900460ff16600381111561130757611307611556565b145b15611312575050565b6001810154429064ffffffffff808316600160d01b9092041611156113545760018201805464ffffffffff60d01b1916600160d01b64ffffffffff8416021790555b600182018054600360a01b60ff60a01b1982161790915582545f9081526004602090815260408083206001600160a01b03909416835292905220548381036113bf5782545f90815260046020908152604080832060018701546001600160a01b031684529091528120555b60405164ffffffffff8316815284907f82550f0a28a65054760a6ca0389b7b79d52eb9934031d1947bb8dea25328a46e90602001610b58565b5f805160206116cb8339815191525460020361142757604051633ee5aeb560e01b815260040160405180910390fd5b565b61143784848484600161145f565b610aff57604051635274afe760e01b81526001600160a01b0385166004820152602401610376565b6040516323b872dd60e01b5f8181526001600160a01b038781166004528616602452604485905291602083606481808c5af1925060015f511483166114bb5783831516156114af573d5f823e3d81fd5b5f883b113d1516831692505b604052505f60605295945050505050565b5f602082840312156114dc575f80fd5b5035919050565b80356001600160a01b03811681146105f0575f80fd5b5f805f806080858703121561150c575f80fd5b611515856114e3565b935060208501359250604085013564ffffffffff81168114611535575f80fd5b9150606085013561ffff8116811461154b575f80fd5b939692955090935050565b634e487b7160e01b5f52602160045260245ffd5b8681526001600160a01b038616602082015260c081016004861061159c57634e487b7160e01b5f52602160045260245ffd5b604082019590955264ffffffffff9384166060820152918316608083015290911660a09091015292915050565b5f80604083850312156115da575f80fd5b82359150602083013580151581146115f0575f80fd5b809150509250929050565b5f806040838503121561160c575f80fd5b8235915061161c602084016114e3565b90509250929050565b634e487b7160e01b5f52601160045260245ffd5b5f6001820161164a5761164a611625565b5060010190565b5f8261166b57634e487b7160e01b5f52601260045260245ffd5b500490565b5f60208284031215611680575f80fd5b5051919050565b808202811582820484141761169e5761169e611625565b92915050565b8181038181111561169e5761169e611625565b8082018082111561169e5761169e61162556fe9b779b17422d0df92223018b32b4d1fa46e071723d6817e2486d003becc55f00a264697066735822122089572303da528f60a3bfd9316608b6d6066425bc047c1a7442fed0250993d9bd64736f6c63430008180033",
        "nonce": "0x6",
        "chainId": "0x7a69"
      },
      "additionalContracts": [],
      "isFixedGasLimit": false
    },
    {
      "hash": "0xd69c451236d143559a4852a4c114fbfc134569e3c067b6c22d1fcd8e4f59e39e",
      "transactionType": "CALL",
      "contractName": "OpenSub",
      "contractAddress": "0x0165878a594ca255338adfa4d48449f69242eb8f",
      "function": "createPlan(address,uint256,uint40,uint16)",
      "arguments": [
        "0x5FC8d32690cc91D4c39d9d3abcBD16989F875707",
        "10000000",
        "2592000",
        "100"
      ],
      "transaction": {
        "from": "0xf39fd6e51aad88f6f4ce6ab8827279cfffb92266",
        "to": "0x0165878a594ca255338adfa4d48449f69242eb8f",
        "gas": "0x2cf26",
        "value": "0x0",
        "input": "0x12b39f4d0000000000000000000000005fc8d32690cc91d4c39d9d3abcbd16989f87570700000000000000000000000000000000000000000000000000000000009896800000000000000000000000000000000000000000000000000000000000278d000000000000000000000000000000000000000000000000000000000000000064",
        "nonce": "0x7",
        "chainId": "0x7a69"
      },
      "additionalContracts": [],
      "isFixedGasLimit": false
    },
    {
      "hash": "0x5d730067c9093b949146f0524856ec97e28a6fd1e1c6b998c94e6329d2ad68b1",
      "transactionType": "CALL",
      "contractName": "MockERC20",
      "contractAddress": "0x5fc8d32690cc91d4c39d9d3abcbd16989f875707",
      "function": "mint(address,uint256)",
      "arguments": [
        "0xf39Fd6e51aad88F6F4ce6aB8827279cffFb92266",
        "10000000000"
      ],
      "transaction": {
        "from": "0xf39fd6e51aad88f6f4ce6ab8827279cfffb92266",
        "to": "0x5fc8d32690cc91d4c39d9d3abcbd16989f875707",
        "gas": "0x17078",
        "value": "0x0",
        "input": "0x40c10f19000000000000000000000000f39fd6e51aad88f6f4ce6ab8827279cfffb9226600000000000000000000000000000000000000000000000000000002540be400",
        "nonce": "0x8",
        "chainId": "0x7a69"
      },
      "additionalContracts": [],
      "isFixedGasLimit": false
    },
    {
      "hash": "0xa284eddc82e95232415868ce0f28e54b244223a57d5b654257d5a20f4c889762",
      "transactionType": "CALL",
      "contractName": "MockERC20",
      "contractAddress": "0x5fc8d32690cc91d4c39d9d3abcbd16989f875707",
      "function": "mint(address,uint256)",
      "arguments": [
        "0x70997970C51812dc3A010C7d01b50e0d17dc79C8",
        "100000000"
      ],
      "transaction": {
        "from": "0xf39fd6e51aad88f6f4ce6ab8827279cfffb92266",
        "to": "0x5fc8d32690cc91d4c39d9d3abcbd16989f875707",
        "gas": "0x11423",
        "value": "0x0",
        "input": "0x40c10f1900000000000000000000000070997970c51812dc3a010c7d01b50e0d17dc79c80000000000000000000000000000000000000000000000000000000005f5e100",
        "nonce": "0x9",
        "chainId": "0x7a69"
      },
      "additionalContracts": [],
      "isFixedGasLimit": false
    },
    {
      "hash": "0x333ced935e388f50670d4b9f7b436d639eec4e0ba45cf1465a326109ff2f0777",
      "transactionType": "CALL",
      "contractName": "MockERC20",
      "contractAddress": "0x5fc8d32690cc91d4c39d9d3abcbd16989f875707",
      "function": "approve(address,uint256)",
      "arguments": [
        "0x0165878A594ca255338adfa4d48449f69242Eb8F",
        "120000000"
      ],
      "transaction": {
        "from": "0x70997970c51812dc3a010c7d01b50e0d17dc79c8",
        "to": "0x5fc8d32690cc91d4c39d9d3abcbd16989f875707",
        "gas": "0xf8d1",
        "value": "0x0",
        "input": "0x095ea7b30000000000000000000000000165878a594ca255338adfa4d48449f69242eb8f0000000000000000000000000000000000000000000000000000000007270e00",
        "nonce": "0x1",
        "chainId": "0x7a69"
      },
      "additionalContracts": [],
      "isFixedGasLimit": false
    },
    {
      "hash": "0x2cabadf1ccc1ae9183ef3ba006614d3db9ee0fd13438c35f5b926288feff3b60",
      "transactionType": "CALL",
      "contractName": "OpenSub",
      "contractAddress": "0x0165878a594ca255338adfa4d48449f69242eb8f",
      "function": "subscribe(uint256)",
      "arguments": [
        "1"
      ],
      "transaction": {
        "from": "0x70997970c51812dc3a010c7d01b50e0d17dc79c8",
        "to": "0x0165878a594ca255338adfa4d48449f69242eb8f",
        "gas": "0x38f84",
        "value": "0x0",
        "input": "0x0f574ba70000000000000000000000000000000000000000000000000000000000000001",
        "nonce": "0x2",
        "chainId": "0x7a69"
      },
      "additionalContracts": [],
      "isFixedGasLimit": false
    }
  ],
  "receipts": [
    {
      "status": "0x1",
      "cumulativeGasUsed": "0x8a959",
      "logs": [],
      "logsBloom": "0x00000000000000000000000000000000000000000000000000000000000000000000000000000000000000000000000000000000000000000000000000000000000000000000000000000000000000000000000000000000000000000000000000000000000000000000000000000000000000000000000000000000000000000000000000000000000000000000000000000000000000000000000000000000000000000000000000000000000000000000000000000000000000000000000000000000000000000000000000000000000000000000000000000000000000000000000000000000000000000000000000000000000000000000000000000000",
      "type": "0x2",
      "transactionHash": "0x80ced86db35fe04d8a96d87f4fd2ed419ddc8d01c18a6fa272fa1557b31eebde",
      "transactionIndex": "0x0",
      "blockHash": "0x6216636981af67e760e5365d9f44bcdb4aa72db21b2890b4212be245d67a4e4e",
      "blockNumber": "0xa",
      "gasUsed": "0x8a959",
      "effectiveGasPrice": "0x124ddcee",
      "blobGasPrice": "0x1",
      "from": "0xf39fd6e51aad88f6f4ce6ab8827279cfffb92266",
      "to": null,
      "contractAddress": "0x5fc8d32690cc91d4c39d9d3abcbd16989f875707"
    },
    {
      "status": "0x1",
      "cumulativeGasUsed": "0x155dd6",
      "logs": [],
      "logsBloom": "0x00000000000000000000000000000000000000000000000000000000000000000000000000000000000000000000000000000000000000000000000000000000000000000000000000000000000000000000000000000000000000000000000000000000000000000000000000000000000000000000000000000000000000000000000000000000000000000000000000000000000000000000000000000000000000000000000000000000000000000000000000000000000000000000000000000000000000000000000000000000000000000000000000000000000000000000000000000000000000000000000000000000000000000000000000000000",
      "type": "0x2",
      "transactionHash": "0x867978587381356952f3f20550dd255d71d3dca74d72a226733579b021f67ed1",
      "transactionIndex": "0x0",
      "blockHash": "0x0e54e0efe73ed3b6a0a1dcc9cebcefcbaf18813cfbf9ae2d3ed5ddc449190ea8",
      "blockNumber": "0xb",
      "gasUsed": "0x155dd6",
      "effectiveGasPrice": "0x101a4bbe",
      "blobGasPrice": "0x1",
      "from": "0xf39fd6e51aad88f6f4ce6ab8827279cfffb92266",
      "to": null,
      "contractAddress": "0x0165878a594ca255338adfa4d48449f69242eb8f"
    },
    {
      "status": "0x1",
      "cumulativeGasUsed": "0x1ebba",
      "logs": [
        {
          "address": "0x0165878a594ca255338adfa4d48449f69242eb8f",
          "topics": [
            "0x099e4e9769a348ee189f3065a6dc38ccda4950c2fde312d59a38f458c2d23e46",
            "0x0000000000000000000000000000000000000000000000000000000000000001",
            "0x000000000000000000000000f39fd6e51aad88f6f4ce6ab8827279cfffb92266",
            "0x0000000000000000000000005fc8d32690cc91d4c39d9d3abcbd16989f875707"
          ],
          "data": "0x00000000000000000000000000000000000000000000000000000000009896800000000000000000000000000000000000000000000000000000000000278d000000000000000000000000000000000000000000000000000000000000000064",
          "blockHash": "0xbcafc1433c59ce10aec8fc2a80d9fb5037e08ec0745f13faf942dfcaa3f753c2",
          "blockNumber": "0xc",
          "blockTimestamp": "0x6a07e64c",
          "transactionHash": "0xd69c451236d143559a4852a4c114fbfc134569e3c067b6c22d1fcd8e4f59e39e",
          "transactionIndex": "0x0",
          "logIndex": "0x0",
          "removed": false
        }
      ],
      "logsBloom": "0x00000000000000000000000000000000000000000000000000000000000000000000000000000000000000000000000040000000000000000000000000040000001000000000000000000000000000000000000000040000000000000000000000000000000000000000000100000000000000000000000000000000000000040000000000000000000000000000000000000000000002000000200000000000100000000000000000000000000000000000000000000200000000000000000000000004000000200000000000000000000000002000001000000000000040000000000000000000000000000000000000000000000000000000000000000000",
      "type": "0x2",
      "transactionHash": "0xd69c451236d143559a4852a4c114fbfc134569e3c067b6c22d1fcd8e4f59e39e",
      "transactionIndex": "0x0",
      "blockHash": "0xbcafc1433c59ce10aec8fc2a80d9fb5037e08ec0745f13faf942dfcaa3f753c2",
      "blockNumber": "0xc",
      "gasUsed": "0x1ebba",
      "effectiveGasPrice": "0xe471ca5",
      "blobGasPrice": "0x1",
      "from": "0xf39fd6e51aad88f6f4ce6ab8827279cfffb92266",
      "to": "0x0165878a594ca255338adfa4d48449f69242eb8f",
      "contractAddress": null
    },
    {
      "status": "0x1",
      "cumulativeGasUsed": "0x10ac4",
      "logs": [
        {
          "address": "0x5fc8d32690cc91d4c39d9d3abcbd16989f875707",
          "topics": [
            "0xddf252ad1be2c89b69c2b068fc378daa952ba7f163c4a11628f55a4df523b3ef",
            "0x0000000000000000000000000000000000000000000000000000000000000000",
            "0x000000000000000000000000f39fd6e51aad88f6f4ce6ab8827279cfffb92266"
          ],
          "data": "0x00000000000000000000000000000000000000000000000000000002540be400",
          "blockHash": "0x5ed1e0dd37cc6caacf3d697d0a46ec1f9865ec0a380f88aba86077c5d777e92c",
          "blockNumber": "0xd",
          "blockTimestamp": "0x6a07e64c",
          "transactionHash": "0x5d730067c9093b949146f0524856ec97e28a6fd1e1c6b998c94e6329d2ad68b1",
          "transactionIndex": "0x0",
          "logIndex": "0x0",
          "removed": false
        }
      ],
      "logsBloom": "0x00000000000000000000000000000000000000000000000000000000000000000000000000000000000000000000000000000000000000000000000000000000000000000000000000000008000000000000000240000000000000000000000000000000020000000000000100000800000000000000000000000010000000000000000000000000000000000000000000000000000000000000000000000000000000000000000000000000000000000000000000000000000000000000000000000002000000200000000000000000000000002000000000000001000020000000000000000000000000000000000000000000000000000000000000000000",
      "type": "0x2",
      "transactionHash": "0x5d730067c9093b949146f0524856ec97e28a6fd1e1c6b998c94e6329d2ad68b1",
      "transactionIndex": "0x0",
      "blockHash": "0x5ed1e0dd37cc6caacf3d697d0a46ec1f9865ec0a380f88aba86077c5d777e92c",
      "blockNumber": "0xd",
      "gasUsed": "0x10ac4",
      "effectiveGasPrice": "0xc820ea4",
      "blobGasPrice": "0x1",
      "from": "0xf39fd6e51aad88f6f4ce6ab8827279cfffb92266",
      "to": "0x5fc8d32690cc91d4c39d9d3abcbd16989f875707",
      "contractAddress": null
    },
    {
      "status": "0x1",
      "cumulativeGasUsed": "0xc7ec",
      "logs": [
        {
          "address": "0x5fc8d32690cc91d4c39d9d3abcbd16989f875707",
          "topics": [
            "0xddf252ad1be2c89b69c2b068fc378daa952ba7f163c4a11628f55a4df523b3ef",
            "0x0000000000000000000000000000000000000000000000000000000000000000",
            "0x00000000000000000000000070997970c51812dc3a010c7d01b50e0d17dc79c8"
          ],
          "data": "0x0000000000000000000000000000000000000000000000000000000005f5e100",
          "blockHash": "0x663b702fb721c1171b258ad0cdf252a737b507981e5829c068968776dc8591a8",
          "blockNumber": "0xe",
          "blockTimestamp": "0x6a07e64c",
          "transactionHash": "0xa284eddc82e95232415868ce0f28e54b244223a57d5b654257d5a20f4c889762",
          "transactionIndex": "0x0",
          "logIndex": "0x0",
          "removed": false
        }
      ],
      "logsBloom": "0x00000000000000000002000000000000000000000000000000000000000000000000000000000000000000000000000000000000000000000000000000000000000000000000000000000008000000000000000240000000000000000000000000000800020000000000000000000800000000000000000000000010000000000000000000000000000000000000000000000000000000000000000000000000000000000000000000000000000000000000000000000000000000000000000000000002000000000000000000000000000000000000000000000001000020000000000000000000000000000000000001000000000000000000000000000000",
      "type": "0x2",
      "transactionHash": "0xa284eddc82e95232415868ce0f28e54b244223a57d5b654257d5a20f4c889762",
      "transactionIndex": "0x0",
      "blockHash": "0x663b702fb721c1171b258ad0cdf252a737b507981e5829c068968776dc8591a8",
      "blockNumber": "0xe",
      "gasUsed": "0xc7ec",
      "effectiveGasPrice": "0xaf39f52",
      "blobGasPrice": "0x1",
      "from": "0xf39fd6e51aad88f6f4ce6ab8827279cfffb92266",
      "to": "0x5fc8d32690cc91d4c39d9d3abcbd16989f875707",
      "contractAddress": null
    },
    {
      "status": "0x1",
      "cumulativeGasUsed": "0xb424",
      "logs": [
        {
          "address": "0x5fc8d32690cc91d4c39d9d3abcbd16989f875707",
          "topics": [
            "0x8c5be1e5ebec7d5bd14f71427d1e84f3dd0314c0f7b2291e5b200ac8c7c3b925",
            "0x00000000000000000000000070997970c51812dc3a010c7d01b50e0d17dc79c8",
            "0x0000000000000000000000000165878a594ca255338adfa4d48449f69242eb8f"
          ],
          "data": "0x0000000000000000000000000000000000000000000000000000000007270e00",
          "blockHash": "0x06240b0913a9628a564e3a9e1416cecca0f7a0e3f210affdcc19b9d2c4164ccd",
          "blockNumber": "0xf",
          "blockTimestamp": "0x6a07e64c",
          "transactionHash": "0x333ced935e388f50670d4b9f7b436d639eec4e0ba45cf1465a326109ff2f0777",
          "transactionIndex": "0x0",
          "logIndex": "0x0",
          "removed": false
        }
      ],
      "logsBloom": "0x00000000000000000002000000000000000000000000000040000000000000000000000000000000000000000000000000000000000000000400000000200000000000000000000000000000000000000000000240000000000000000000000000000800000000000000000000000000000000000000000000000000000000000000000000000000000000000000000000000000000000000000000000000000020000000000000000000000000000000000000000000100000000000000000000000000000000000000000000000000000000000000000000000001000000000010000000000000000000000000000001000000000000000000000000000000",
      "type": "0x2",
      "transactionHash": "0x333ced935e388f50670d4b9f7b436d639eec4e0ba45cf1465a326109ff2f0777",
      "transactionIndex": "0x0",
      "blockHash": "0x06240b0913a9628a564e3a9e1416cecca0f7a0e3f210affdcc19b9d2c4164ccd",
      "blockNumber": "0xf",
      "gasUsed": "0xb424",
      "effectiveGasPrice": "0x9965d85",
      "blobGasPrice": "0x1",
      "from": "0x70997970c51812dc3a010c7d01b50e0d17dc79c8",
      "to": "0x5fc8d32690cc91d4c39d9d3abcbd16989f875707",
      "contractAddress": null
    },
    {
      "status": "0x1",
      "cumulativeGasUsed": "0x26f43",
      "logs": [
        {
          "address": "0x5fc8d32690cc91d4c39d9d3abcbd16989f875707",
          "topics": [
            "0x8c5be1e5ebec7d5bd14f71427d1e84f3dd0314c0f7b2291e5b200ac8c7c3b925",
            "0x00000000000000000000000070997970c51812dc3a010c7d01b50e0d17dc79c8",
            "0x0000000000000000000000000165878a594ca255338adfa4d48449f69242eb8f"
          ],
          "data": "0x00000000000000000000000000000000000000000000000000000000068e7780",
          "blockHash": "0x2dcfe3f4fbe859860620195dbf6e77741e649994c8a22cf965b47550fa77d434",
          "blockNumber": "0x10",
          "blockTimestamp": "0x6a07e64c",
          "transactionHash": "0x2cabadf1ccc1ae9183ef3ba006614d3db9ee0fd13438c35f5b926288feff3b60",
          "transactionIndex": "0x0",
          "logIndex": "0x0",
          "removed": false
        },
        {
          "address": "0x5fc8d32690cc91d4c39d9d3abcbd16989f875707",
          "topics": [
            "0xddf252ad1be2c89b69c2b068fc378daa952ba7f163c4a11628f55a4df523b3ef",
            "0x00000000000000000000000070997970c51812dc3a010c7d01b50e0d17dc79c8",
            "0x000000000000000000000000f39fd6e51aad88f6f4ce6ab8827279cfffb92266"
          ],
          "data": "0x0000000000000000000000000000000000000000000000000000000000989680",
          "blockHash": "0x2dcfe3f4fbe859860620195dbf6e77741e649994c8a22cf965b47550fa77d434",
          "blockNumber": "0x10",
          "blockTimestamp": "0x6a07e64c",
          "transactionHash": "0x2cabadf1ccc1ae9183ef3ba006614d3db9ee0fd13438c35f5b926288feff3b60",
          "transactionIndex": "0x0",
          "logIndex": "0x1",
          "removed": false
        },
        {
          "address": "0x0165878a594ca255338adfa4d48449f69242eb8f",
          "topics": [
            "0x05bce31eb0e5d3aa8d6a403596f37329b8b996340f1714009392d8a0e15eaa63",
            "0x0000000000000000000000000000000000000000000000000000000000000001",
            "0x0000000000000000000000000000000000000000000000000000000000000001",
            "0x00000000000000000000000070997970c51812dc3a010c7d01b50e0d17dc79c8"
          ],
          "data": "0x0000000000000000000000005fc8d32690cc91d4c39d9d3abcbd16989f875707000000000000000000000000000000000000000000000000000000000098968000000000000000000000000000000000000000000000000000000000000000000000000000000000000000000000000000000000000000000000000000000000000000000000000000000000000000000000000000000000000000006a07e64c000000000000000000000000000000000000000000000000000000006a2f734c",
          "blockHash": "0x2dcfe3f4fbe859860620195dbf6e77741e649994c8a22cf965b47550fa77d434",
          "blockNumber": "0x10",
          "blockTimestamp": "0x6a07e64c",
          "transactionHash": "0x2cabadf1ccc1ae9183ef3ba006614d3db9ee0fd13438c35f5b926288feff3b60",
          "transactionIndex": "0x0",
          "logIndex": "0x2",
          "removed": false
        },
        {
          "address": "0x0165878a594ca255338adfa4d48449f69242eb8f",
          "topics": [
            "0x7785ceacde6288a8590a79d939f08acc66cc15ee8513763e588f080b71ce91a2",
            "0x0000000000000000000000000000000000000000000000000000000000000001",
            "0x0000000000000000000000000000000000000000000000000000000000000001",
            "0x00000000000000000000000070997970c51812dc3a010c7d01b50e0d17dc79c8"
          ],
          "data": "0x000000000000000000000000000000000000000000000000000000006a07e64c000000000000000000000000000000000000000000000000000000006a2f734c",
          "blockHash": "0x2dcfe3f4fbe859860620195dbf6e77741e649994c8a22cf965b47550fa77d434",
          "blockNumber": "0x10",
          "blockTimestamp": "0x6a07e64c",
          "transactionHash": "0x2cabadf1ccc1ae9183ef3ba006614d3db9ee0fd13438c35f5b926288feff3b60",
          "transactionIndex": "0x0",
          "logIndex": "0x3",
          "removed": false
        }
      ],
      "logsBloom": "0x00000000000000000002000000000000000000080000000040000000000000000000000000000000000000000000000000000000000000000400010000240020001000000000000000000008000000000200000240040000000000000000000000000800000000000000000100000000000000000800000000000010000000040000000000000000000000000000000000000000000000000000000000000000020000000000000000000000000000000000000080000100000000000000000000000006000000200000000000000000000000002000000000000001000040000010000000000000000000000000000001000000000000000000000000000000",
      "type": "0x2",
      "transactionHash": "0x2cabadf1ccc1ae9183ef3ba006614d3db9ee0fd13438c35f5b926288feff3b60",
      "transactionIndex": "0x0",
      "blockHash": "0x2dcfe3f4fbe859860620195dbf6e77741e649994c8a22cf965b47550fa77d434",
      "blockNumber": "0x10",
      "gasUsed": "0x26f43",
      "effectiveGasPrice": "0x864834b",
      "blobGasPrice": "0x1",
      "from": "0x70997970c51812dc3a010c7d01b50e0d17dc79c8",
      "to": "0x0165878a594ca255338adfa4d48449f69242eb8f",
      "contractAddress": null
    }
  ],
  "libraries": [],
  "pending": [],
  "returns": {},
  "timestamp": 1771126601,
  "chain": 31337,
  "commit": "dcb1560"
}